{
  "contractName": "GetBalances",
  "abi": [
    {
      "inputs": [
        {
          "internalType": "address",
          "name": "walletAddr",
          "type": "address"
        },
        {
          "internalType": "address[]",
          "name": "tokenAddrs",
          "type": "address[]"
        }
      ],
      "name": "getBalances",
      "outputs": [
        {
          "components": [
            {
              "internalType": "address",
              "name": "token",
              "type": "address"
            },
            {
              "internalType": "uint256",
              "name": "balance",
              "type": "uint256"
            }
          ],
          "internalType": "struct GetBalances.tokenBalance[]",
          "name": "",
          "type": "tuple[]"
        }
      ],
      "stateMutability": "view",
      "type": "function",
      "constant": true
    }
  ],
  "bytecode": "0x608060405234801561001057600080fd5b506106ab806100206000396000f3fe608060405234801561001057600080fd5b506004361061002b5760003560e01c80636a385ae914610030575b600080fd5b61004a600480360381019061004591906103c8565b610060565b604051610057919061052a565b60405180910390f35b60606000825167ffffffffffffffff81111561007f5761007e610285565b5b6040519080825280602002602001820160405280156100b857816020015b6100a56101cd565b81526020019060019003908161009d5790505b50905060005b83518110156101c25760008482815181106100dc576100db61054c565b5b6020026020010151905060008173ffffffffffffffffffffffffffffffffffffffff166370a08231886040518263ffffffff1660e01b8152600401610121919061058a565b602060405180830381865afa15801561013e573d6000803e3d6000fd5b505050506040513d601f19601f8201168201806040525081019061016291906105d1565b905060405180604001604052808373ffffffffffffffffffffffffffffffffffffffff168152602001828152508484815181106101a2576101a161054c565b5b6020026020010181905250505080806101ba9061062d565b9150506100be565b508091505092915050565b6040518060400160405280600073ffffffffffffffffffffffffffffffffffffffff168152602001600081525090565b6000604051905090565b600080fd5b600080fd5b600073ffffffffffffffffffffffffffffffffffffffff82169050919050565b600061023c82610211565b9050919050565b61024c81610231565b811461025757600080fd5b50565b60008135905061026981610243565b92915050565b600080fd5b6000601f19601f8301169050919050565b7f4e487b7100000000000000000000000000000000000000000000000000000000600052604160045260246000fd5b6102bd82610274565b810181811067ffffffffffffffff821117156102dc576102db610285565b5b80604052505050565b60006102ef6101fd565b90506102fb82826102b4565b919050565b600067ffffffffffffffff82111561031b5761031a610285565b5b602082029050602081019050919050565b600080fd5b600061034461033f84610300565b6102e5565b905080838252602082019050602084028301858111156103675761036661032c565b5b835b81811015610390578061037c888261025a565b845260208401935050602081019050610369565b5050509392505050565b600082601f8301126103af576103ae61026f565b5b81356103bf848260208601610331565b91505092915050565b600080604083850312156103df576103de610207565b5b60006103ed8582860161025a565b925050602083013567ffffffffffffffff81111561040e5761040d61020c565b5b61041a8582860161039a565b9150509250929050565b600081519050919050565b600082825260208201905092915050565b6000819050602082019050919050565b61045981610231565b82525050565b6000819050919050565b6104728161045f565b82525050565b60408201600082015161048e6000850182610450565b5060208201516104a16020850182610469565b50505050565b60006104b38383610478565b60408301905092915050565b6000602082019050919050565b60006104d782610424565b6104e1818561042f565b93506104ec83610440565b8060005b8381101561051d57815161050488826104a7565b975061050f836104bf565b9250506001810190506104f0565b5085935050505092915050565b6000602082019050818103600083015261054481846104cc565b905092915050565b7f4e487b7100000000000000000000000000000000000000000000000000000000600052603260045260246000fd5b61058481610231565b82525050565b600060208201905061059f600083018461057b565b92915050565b6105ae8161045f565b81146105b957600080fd5b50565b6000815190506105cb816105a5565b92915050565b6000602082840312156105e7576105e6610207565b5b60006105f5848285016105bc565b91505092915050565b7f4e487b7100000000000000000000000000000000000000000000000000000000600052601160045260246000fd5b60006106388261045f565b91507fffffffffffffffffffffffffffffffffffffffffffffffffffffffffffffffff820361066a576106696105fe565b5b60018201905091905056fea26469706673582212203dbe54ceec9ac5397ffe0cfc6e2b08ddb3a31be71c48d9df2260e9f4afedf07364736f6c634300080f0033",
  "immutableReferences": {},
  "source": "// SPDX-License-Identifier: MIT\r\npragma solidity ^0.8.0;\r\n\r\ninterface ERC20 {\r\n    function balanceOf(address _owner) external view returns (uint256);\r\n}\r\n\r\ncontract GetBalances {\r\n    struct tokenBalance {\r\n        address token;\r\n        uint256 balance;\r\n    }\r\n\r\n    function getBalances(address walletAddr, address[] memory tokenAddrs) public view returns (tokenBalance[] memory) {\r\n        tokenBalance[] memory tokenBalanceArray = new tokenBalance[] (\r\n            tokenAddrs.length\r\n        );\r\n        for (uint i=0; i < tokenAddrs.length; i++) {\r\n            address token = tokenAddrs[i];\r\n            uint256 balance = ERC20(token).balanceOf(walletAddr);\r\n            tokenBalanceArray[i] = tokenBalance(token, balance);\r\n        }\r\n        return tokenBalanceArray;\r\n    }\r\n}\r\n",
  "sourcePath": "C:\\Users\\matte\\GitHub\\code-challenge-master\\src\\problem5\\contracts\\GetBalances.sol",
  "compiler": {
    "name": "solc",
    "version": "0.8.15+commit.e14f2714.Emscripten.clang"
  },
  "schemaVersion": "3.4.8",
  "updatedAt": "2022-08-07T11:04:50.500Z",
  "networkType": "ethereum",
  "devdoc": {
    "kind": "dev",
    "methods": {},
    "version": 1
  },
  "userdoc": {
    "kind": "user",
    "methods": {},
    "version": 1
  }
}